{
  "contractName": "Crud",
  "abi": [
    {
      "constant": true,
      "inputs": [
        {
          "internalType": "uint256",
          "name": "",
          "type": "uint256"
        }
      ],
      "name": "employee",
      "outputs": [
        {
          "internalType": "uint256",
          "name": "id",
          "type": "uint256"
        },
        {
          "internalType": "string",
          "name": "name",
          "type": "string"
        },
        {
          "internalType": "string",
          "name": "designation",
          "type": "string"
        },
        {
          "internalType": "string",
          "name": "company",
          "type": "string"
        }
      ],
      "payable": false,
      "stateMutability": "view",
      "type": "function"
    },
    {
      "constant": true,
      "inputs": [
        {
          "internalType": "uint256",
          "name": "_id",
          "type": "uint256"
        }
      ],
      "name": "find",
      "outputs": [
        {
          "internalType": "uint256",
          "name": "",
          "type": "uint256"
        }
      ],
      "payable": false,
      "stateMutability": "view",
      "type": "function"
    },
    {
      "constant": false,
      "inputs": [
        {
          "internalType": "string",
          "name": "_name",
          "type": "string"
        },
        {
          "internalType": "string",
          "name": "_designation",
          "type": "string"
        },
        {
          "internalType": "string",
          "name": "_company",
          "type": "string"
        }
      ],
      "name": "insertEmp",
      "outputs": [],
      "payable": false,
      "stateMutability": "nonpayable",
      "type": "function"
    },
    {
      "constant": true,
      "inputs": [
        {
          "internalType": "uint256",
          "name": "_id",
          "type": "uint256"
        }
      ],
      "name": "readEmpById",
      "outputs": [
        {
          "internalType": "uint256",
          "name": "",
          "type": "uint256"
        },
        {
          "internalType": "string",
          "name": "",
          "type": "string"
        },
        {
          "internalType": "string",
          "name": "",
          "type": "string"
        },
        {
          "internalType": "string",
          "name": "",
          "type": "string"
        }
      ],
      "payable": false,
      "stateMutability": "view",
      "type": "function"
    },
    {
      "constant": false,
      "inputs": [
        {
          "internalType": "uint256",
          "name": "_id",
          "type": "uint256"
        },
        {
          "internalType": "string",
          "name": "_name",
          "type": "string"
        },
        {
          "internalType": "string",
          "name": "_designation",
          "type": "string"
        },
        {
          "internalType": "string",
          "name": "_company",
          "type": "string"
        }
      ],
      "name": "updateEmpById",
      "outputs": [],
      "payable": false,
      "stateMutability": "nonpayable",
      "type": "function"
    },
    {
      "constant": false,
      "inputs": [
        {
          "internalType": "uint256",
          "name": "_id",
          "type": "uint256"
        }
      ],
      "name": "DeleteEmpById",
      "outputs": [
        {
          "internalType": "uint256",
          "name": "",
          "type": "uint256"
        }
      ],
      "payable": false,
      "stateMutability": "nonpayable",
      "type": "function"
    }
  ],
  "bytecode": "0x60806040526001805534801561001457600080fd5b5061108e806100246000396000f3fe608060405234801561001057600080fd5b50600436106100625760003560e01c8063324ce20d14610067578063375b25f01461025a578063384ef8921461029c5780633e530e5b1461042257806399b65f7914610464578063b5ffdbf0146105ea575b600080fd5b6102586004803603608081101561007d57600080fd5b8101908080359060200190929190803590602001906401000000008111156100a457600080fd5b8201836020820111156100b657600080fd5b803590602001918460018302840111640100000000831117156100d857600080fd5b91908080601f016020809104026020016040519081016040528093929190818152602001838380828437600081840152601f19601f8201169050808301925050505050505091929192908035906020019064010000000081111561013b57600080fd5b82018360208201111561014d57600080fd5b8035906020019184600183028401116401000000008311171561016f57600080fd5b91908080601f016020809104026020016040519081016040528093929190818152602001838380828437600081840152601f19601f820116905080830192505050505050509192919290803590602001906401000000008111156101d257600080fd5b8201836020820111156101e457600080fd5b8035906020019184600183028401116401000000008311171561020657600080fd5b91908080601f016020809104026020016040519081016040528093929190818152602001838380828437600081840152601f19601f8201169050808301925050505050505091929192905050506107d3565b005b6102866004803603602081101561027057600080fd5b8101908080359060200190929190505050610880565b6040518082815260200191505060405180910390f35b6102c8600480360360208110156102b257600080fd5b81019080803590602001909291905050506108ea565b60405180858152602001806020018060200180602001848103845287818151815260200191508051906020019080838360005b838110156103165780820151818401526020810190506102fb565b50505050905090810190601f1680156103435780820380516001836020036101000a031916815260200191505b50848103835286818151815260200191508051906020019080838360005b8381101561037c578082015181840152602081019050610361565b50505050905090810190601f1680156103a95780820380516001836020036101000a031916815260200191505b50848103825285818151815260200191508051906020019080838360005b838110156103e25780820151818401526020810190506103c7565b50505050905090810190601f16801561040f5780820380516001836020036101000a031916815260200191505b5097505050505050505060405180910390f35b61044e6004803603602081101561043857600080fd5b8101908080359060200190929190505050610b5b565b6040518082815260200191505060405180910390f35b6104906004803603602081101561047a57600080fd5b8101908080359060200190929190505050610c1c565b60405180858152602001806020018060200180602001848103845287818151815260200191508051906020019080838360005b838110156104de5780820151818401526020810190506104c3565b50505050905090810190601f16801561050b5780820380516001836020036101000a031916815260200191505b50848103835286818151815260200191508051906020019080838360005b83811015610544578082015181840152602081019050610529565b50505050905090810190601f1680156105715780820380516001836020036101000a031916815260200191505b50848103825285818151815260200191508051906020019080838360005b838110156105aa57808201518184015260208101905061058f565b50505050905090810190601f1680156105d75780820380516001836020036101000a031916815260200191505b5097505050505050505060405180910390f35b6107d16004803603606081101561060057600080fd5b810190808035906020019064010000000081111561061d57600080fd5b82018360208201111561062f57600080fd5b8035906020019184600183028401116401000000008311171561065157600080fd5b91908080601f016020809104026020016040519081016040528093929190818152602001838380828437600081840152601f19601f820116905080830192505050505050509192919290803590602001906401000000008111156106b457600080fd5b8201836020820111156106c657600080fd5b803590602001918460018302840111640100000000831117156106e857600080fd5b91908080601f016020809104026020016040519081016040528093929190818152602001838380828437600081840152601f19601f8201169050808301925050505050505091929192908035906020019064010000000081111561074b57600080fd5b82018360208201111561075d57600080fd5b8035906020019184600183028401116401000000008311171561077f57600080fd5b91908080601f016020809104026020016040519081016040528093929190818152602001838380828437600081840152601f19601f820116905080830192505050505050509192919290505050610e21565b005b60006107de85610b5b565b905083600082815481106107ee57fe5b90600052602060002090600402016001019080519060200190610812929190610eec565b50826000828154811061082157fe5b90600052602060002090600402016002019080519060200190610845929190610eec565b50816000828154811061085457fe5b90600052602060002090600402016003019080519060200190610878929190610eec565b505050505050565b60008061088c83610b5b565b90506000818154811061089b57fe5b90600052602060002090600402016000808201600090556001820160006108c29190610f6c565b6002820160006108d29190610f6c565b6003820160006108e29190610f6c565b505050919050565b6000606080606060006108fc86610b5b565b90506000818154811061090b57fe5b9060005260206000209060040201600001546000828154811061092a57fe5b90600052602060002090600402016001016000838154811061094857fe5b90600052602060002090600402016002016000848154811061096657fe5b9060005260206000209060040201600301828054600181600116156101000203166002900480601f016020809104026020016040519081016040528092919081815260200182805460018160011615610100020316600290048015610a0c5780601f106109e157610100808354040283529160200191610a0c565b820191906000526020600020905b8154815290600101906020018083116109ef57829003601f168201915b50505050509250818054600181600116156101000203166002900480601f016020809104026020016040519081016040528092919081815260200182805460018160011615610100020316600290048015610aa85780601f10610a7d57610100808354040283529160200191610aa8565b820191906000526020600020905b815481529060010190602001808311610a8b57829003601f168201915b50505050509150808054600181600116156101000203166002900480601f016020809104026020016040519081016040528092919081815260200182805460018160011615610100020316600290048015610b445780601f10610b1957610100808354040283529160200191610b44565b820191906000526020600020905b815481529060010190602001808311610b2757829003601f168201915b505050505090509450945094509450509193509193565b6000805b600080549050811015610ba8578260008281548110610b7a57fe5b9060005260206000209060040201600001541415610b9b5780915050610c17565b8080600101915050610b5f565b506040517f08c379a00000000000000000000000000000000000000000000000000000000081526004018080602001828103825260148152602001807f5573657220646f6573206e6f742065786973742e00000000000000000000000081525060200191505060405180910390fd5b919050565b60008181548110610c2957fe5b9060005260206000209060040201600091509050806000015490806001018054600181600116156101000203166002900480601f016020809104026020016040519081016040528092919081815260200182805460018160011615610100020316600290048015610cdb5780601f10610cb057610100808354040283529160200191610cdb565b820191906000526020600020905b815481529060010190602001808311610cbe57829003601f168201915b505050505090806002018054600181600116156101000203166002900480601f016020809104026020016040519081016040528092919081815260200182805460018160011615610100020316600290048015610d795780601f10610d4e57610100808354040283529160200191610d79565b820191906000526020600020905b815481529060010190602001808311610d5c57829003601f168201915b505050505090806003018054600181600116156101000203166002900480601f016020809104026020016040519081016040528092919081815260200182805460018160011615610100020316600290048015610e175780601f10610dec57610100808354040283529160200191610e17565b820191906000526020600020905b815481529060010190602001808311610dfa57829003601f168201915b5050505050905084565b6000604051806080016040528060015481526020018581526020018481526020018381525090806001815401808255809150509060018203906000526020600020906004020160009091929091909150600082015181600001556020820151816001019080519060200190610e97929190610fb4565b506040820151816002019080519060200190610eb4929190610fb4565b506060820151816003019080519060200190610ed1929190610fb4565b50505050600160008154809291906001019190505550505050565b828054600181600116156101000203166002900490600052602060002090601f016020900481019282601f10610f2d57805160ff1916838001178555610f5b565b82800160010185558215610f5b579182015b82811115610f5a578251825591602001919060010190610f3f565b5b509050610f689190611034565b5090565b50805460018160011615610100020316600290046000825580601f10610f925750610fb1565b601f016020900490600052602060002090810190610fb09190611034565b5b50565b828054600181600116156101000203166002900490600052602060002090601f016020900481019282601f10610ff557805160ff1916838001178555611023565b82800160010185558215611023579182015b82811115611022578251825591602001919060010190611007565b5b5090506110309190611034565b5090565b61105691905b8082111561105257600081600090555060010161103a565b5090565b9056fea265627a7a723158203a16d3c0a1b4ca755b5e631bb08a973ecbaa3227d1e1abac23b0afb4ba5f319864736f6c63430005100032",
  "source": "pragma solidity ^0.5.16;\n\n\ncontract Crud {\n    struct Employee {\n        uint256 id;\n        string name;\n        string designation;\n        string company;\n    }\n\n    //create struct type array to store values\n    Employee[] public employee;\n    uint256 nextId = 1;\n\n    function find(uint256 _id) public view returns (uint256) {\n        for (uint256 i; i < employee.length; i++) {\n            if (employee[i].id == _id) return i;\n        }\n        revert(\"User does not exist.\");\n    }\n\n    function insertEmp(\n        string memory _name,\n        string memory _designation,\n        string memory _company\n    ) public {\n        employee.push(Employee(nextId, _name, _designation, _company));\n        nextId++;\n    }\n\n    function readEmpById(uint256 _id)\n        public\n        view\n        returns (uint256, string memory, string memory, string memory)\n    {\n        uint256 i = find(_id);\n        return (\n            employee[i].id,\n            employee[i].name,\n            employee[i].designation,\n            employee[i].company\n        );\n    }\n\n    function updateEmpById(\n        uint256 _id,\n        string memory _name,\n        string memory _designation,\n        string memory _company\n    ) public {\n        uint256 i = find(_id);\n        employee[i].name = _name;\n        employee[i].designation = _designation;\n        employee[i].company = _company;\n    }\n\n    function DeleteEmpById(uint256 _id) public returns (uint256) {\n        uint256 i = find(_id);\n        delete employee[i];\n    }\n}\n",
  "sourcePath": "/home/bhasineeraj/javascript/remix/crud/frontend/contracts/Crud.sol",
  "compiler": {
    "name": "solc",
    "version": "0.5.16+commit.9c3226ce.Emscripten.clang"
  },
  "schemaVersion": "3.0.22",
  "updatedAt": "2020-04-29T16:32:19.106Z",
  "networkType": "ethereum",
  "devdoc": {
    "methods": {}
  },
  "userdoc": {
    "methods": {}
  }
}